S01800004D6563686174726F6E6963734C6162372E73726563E6
S11300000C9434000C9451000C9451000C94510045
S11300100C9451000C9451000C9451000C94510018
S11300200C9451000C9451000C9451000C94510008
S11300300C9451000C9451000C9451000C945100F8
S11300400C9451000C9451000C9451000C945100E8
S11300500C9451000C9451000C9451000C945100D8
S11300600C9451000C94510011241FBECFEFD8E022
S1130070DEBFCDBF11E0A0E0B1E0ECE7F1E002C0EB
S113008005900D92A430B107D9F721E0A4E0B1E0C6
S113009001C01D92AA30B207E1F70E9453000C94EC
S11300A0BC000C9400008FEF8AB984E08BB917BCB4
S11300B083E884BD83E085BD17B810926400EAE745
S11300C0F0E087E8808380E680937C008081806410
S11300D08083808184FFFDCF8091790090E09093AC
S11300E0090180930801EAE7F0E0C9E7D0E02FEFC7
S11300F0FF24F39400E010E030E08081806480838A
S1130100808184FFFDCF888190E0909309018093E2
S1130110080127BD109204011092050110920601F6
S11301201092070140910001509101016091020178
S1130130709103011416150616061706F4F680E0EE
S113014090E0DC010196A11DB11D84179507A60757
S1130150B707C4F3141615061606170624F04F2D18
S1130160502F612F732F4093040150930501609326
S10F0170060170930701C1CFF894FFCF83
S107017C00127A00EF
S9030000FC
