S01800004D6563686174726F6E6963734C6162372E73726563E6
S11300000C9434000C9451000C9451000C94510045
S11300100C9451000C9451000C9451000C94510018
S11300200C9451000C9451000C9451000C94510008
S11300300C9451000C9451000C9451000C945100F8
S11300400C9451000C9451000C9451000C945100E8
S11300500C9451000C9451000C9451000C945100D8
S11300600C9451000C94510011241FBECFEFD8E022
S1130070DEBFCDBF11E0A0E0B1E0ECEDF1E002C0E5
S113008005900D92A030B107D9F721E0A0E0B1E0CE
S113009001C01D92A230B207E1F70E9464000C94E3
S11300A0EC000C940000181619061CF487BD18BC4B
S11300B00895992334F491958195910988BD17BCCD
S11300C0089518BC17BC08958FEF8AB987BD88BD01
S11300D083EA84BD84E085BD17B81092640087E884
S11300E080937A0080E680937C00CAE7D0E009E739
S11300F010E0C12CD12C7601CA9488818064888355
S1130100888184FFFDCFF8018081282F30E030936F
S1130110010120930001AEEFB1E00E94BB00A701F2
S113012096010E949C00DA01C9018F5F9109A1091F
S1130130B1090E945300E1CF052E97FB1EF40094F1
S11301400E94B30057FD07D00E94CA0007FC03D0E9
S11301504EF40C94B30050954095309521953F4F43
S11301604F4F5F4F089590958095709561957F4F9F
S11301708F4F9F4F0895A29FB001B39FC001A39FCB
S1130180700D811D1124911DB29F700D811D1124CC
S1130190911D0895A1E21A2EAA1BBB1BFD010DC0DF
S11301A0AA1FBB1FEE1FFF1FA217B307E407F50723
S11301B020F0A21BB30BE40BF50B661F771F881FFF
S11301C0991F1A9469F760957095809590959B0195
S10F01D0AC01BD01CF010895F894FFCFED
S9030000FC
