S02800004D6563686174726F6E69637346696E616C464654616E644C45444D61747269632E73726563EA
S11300000C9434000C9451000C9451000C94510045
S11300100C9451000C9451000C9451000C94510018
S11300200C9451000C9451000C9451000C94510008
S11300300C9451000C9451000C9451000C945100F8
S11300400C9451000C9451000C9451000C945100E8
S11300500C9451000C9451000C9451000C945100D8
S11300600C9451000C94510011241FBECFEFD8E022
S1130070DEBFCDBF11E0A0E0B1E0E6EAF5E002C0EA
S113008005900D92A030B107D9F721E0A0E0B1E0CE
S113009001C01D92A931B207E1F70E94ED000C9452
S11300A0D1020C940000009731F025E02A95F1F775
S11300B000000197D1F70895662379F021E030E03C
S11300C0A90102C0440F551F8A95E2F7CA01909115
S11300D00A01892B80930A0102C010920A018091BF
S11300E00A018BB908955E9898E05F98882314F408
S11300F05D9A01C05D98880F5F9A9150B1F7089599
S1130100CF93C62F5E980E9473008C2F0E947300B9
S11301105E9ACF910895579A569A559A2FEF80E791
S113012092E0215080409040E1F700C0000060E080
S113013089E00E94800063E08AE00E94800067E01A
S11301408BE00E94800061E08CE00E94800060E00F
S11301508FE00E94800008959FEF980F983010F46C
S11301600E94800008950F931F93CF9300E011E045
S1130170C1E0F80161918F018C2F0E94AC00CF5F28
S1130180C930B9F7CF911F910F9108956770E62F89
S1130190F0E0E050FF4F8095282F277081E090E039
S11301A002C0880F991F2A95E2F79081892B8083DA
S11301B008956770E62FF0E0E050FF4F8095282FF8
S11301C0277081E090E002C0880F991F2A95E2F71A
S11301D0809590818923808308950E948B008FEFFE
S11301E08AB917B887BD88BD83EA84BD84E085BD1C
S11301F017B810926400EAE7F0E087E8808380E6AD
S113020080937C00808180648083808184FFFDCF23
S11302108091790090E0909309018093080160E057
S113022081E00E945C0061E080E00E945C000F2E8F
S1130230FBE06F2EF1E07F2EF02D0F2EF9E18F2ED3
S1130240F1E09F2EF02D0AE710E00F2EF9E7AF2E14
S1130250B12CF02D312C212C432C522C61E081E067
S11302600E945C0081E090E00E94530060E081E025
S11302700E945C0084E690E00E9453006301E30165
S113028060E080E00E945C0082E390E00E94530002
S1130290F801808180648083F801808184FFFCCF31
S11302A0F501608170E07093090160930801072EE5
S11302B0000C880B990B0E94D80120E030E040E04C
S11302C05DE30E943C020E94A0016993799382E35A
S11302D090E00E94530061E080E00E945C0088E2AC
S11302E090E00E945300C815D90551F6E32CF22C76
S11302F024C00E94B300F60180819181C817D907F8
S11303002CF4BE01C7010E94C60004C0BE01C7018F
S11303100E94D90085E090E00E9453002196C830E5
S1130320D10539F7FFEFEF1AFF0A82E0C80ED11C9E
S1130330E8E0EE16F10409F491CFC42DD52DD9CF00
S11303400E94A7016894B1110C94360208950E948A
S11303501B0288F09F5798F0B92F9927B751B0F036
S1130360E1F0660F771F881F991F1AF0BA95C9F735
S113037014C0B13091F00E943502B1E008950C949C
S11303803502672F782F8827B85F39F0B93FCCF34F
S1130390869577956795B395D9F73EF490958095B2
S11303A0709561957F4F8F4F9F4F0895E89409C0D2
S11303B097FB3EF490958095709561957F4F8F4F94
S11303C09F4F9923A9F0F92F96E9BB279395F695AA
S11303D0879577956795B795F111F8CFFAF4BB0F28
S11303E011F460FF1BC06F5F7F4F8F4F9F4F16C08C
S11303F0882311F096E911C0772321F09EE8872F16
S1130400762F05C0662371F096E8862F70E060E0D1
S11304102AF09A95660F771F881FDAF7880F96954A
S1130420879597F9089557FD9058440F551F59F033
S11304305F3F71F04795880F97FB991F61F09F3FCD
S113044079F087950895121613061406551FF2CFF6
S11304504695F1DF08C0161617061806991FF1CF46
S113046086957105610508940895E894BB2766276D
S11304707727CB0197F908950E944F020C94C0028C
S11304800E94B20238F00E94B90220F0952311F0C4
S11304900C94A9020C94AF0211240C9436020E940D
S11304A0130270F3959FC1F3950F50E0551F629F9F
S11304B0F001729FBB27F00DB11D639FAA27F00DB9
S11304C0B11DAA1F649F6627B00DA11D661F829FE0
S11304D02227B00DA11D621F739FB00DA11D621FC5
S11304E0839FA00D611D221F749F3327A00D611DE2
S11304F0231F849F600D211D822F762F6A2F1124C4
S11305009F5750409AF0F1F088234AF0EE0FFF1FF6
S1130510BB1F661F771F881F91505040A9F79E3F4D
S1130520510580F00C94A9020C9436025F3FE4F369
S1130530983ED4F3869577956795B795F795E795A3
S11305409F5FC1F7FE2B880F911D9695879597F9AC
S1130550089597F99F6780E870E060E008959FEF41
S113056080EC089500240A94161617061806090646
S1130570089500240A941216130614060506089515
S1130580092E0394000C11F4882352F0BB0F40F49D
S1130590BF2B11F460FF04C06F5F7F4F8F4F9F4FDD
S10905A00895F894FFCF5A
S9030000FC
