:100000000C9434000C9451000C9451000C94510049
:100010000C9451000C9451000C9451000C9451001C
:100020000C9451000C9451000C9451000C9451000C
:100030000C9451000C9451000C9451000C945100FC
:100040000C9451000C9451000C9451000C945100EC
:100050000C9451000C9451000C9451000C945100DC
:100060000C9451000C94510011241FBECFEFD8E026
:10007000DEBFCDBF11E0A0E0B1E0E0E9F5E002C0F5
:1000800005900D92A030B107D9F721E0A0E0B1E0D2
:1000900001C01D92A931B207E1F70E94EF000C9454
:1000A000C6020C940000009741F0EFE9FFE03197A1
:1000B000F1F700C000000197C1F70895662379F0B9
:1000C00021E030E0A90102C0440F551F8A95E2F7F4
:1000D000CA0190910A01892B80930A0102C01092F3
:1000E0000A0180910A018BB908955E9898E05F98A3
:1000F000882314F45D9A01C05D98880F5F9A91502F
:10010000B1F70895CF93C62F5E980E9475008C2F8B
:100110000E9475005E9ACF910895579A569A559A03
:100120002FEF80E792E0215080409040E1F700C03F
:10013000000060E089E00E94820063E08AE00E94A3
:10014000820067E08BE00E94820061E08CE00E9408
:10015000820060E08FE00E94820008959FEF980F78
:10016000983010F40E94820008950F931F93CF934C
:1001700000E011E0C1E0F80161918F018C2F0E9435
:10018000AE00CF5FC930B9F7CF911F910F9108959D
:100190006770E62FF0E0E050FF4F8095282F277022
:1001A00081E090E002C0880F991F2A95E2F79081C4
:1001B000892B808308956770E62FF0E0E050FF4FB1
:1001C0008095282F277081E090E002C0880F991F4A
:1001D0002A95E2F7809590818923808308950E9473
:1001E0008D008FEF8AB917B817B810926400EAE74C
:1001F000F0E087E8808380E680937C0080818064E3
:100200008083808184FFFDCF8091790090E090937E
:1002100009018093080160E081E00E945E0061E0D6
:1002200080E00E945E000F2EF9E16F2EF1E07F2E3C
:10023000F02D0F2EFAE7AF2EB12CF02D0F2EF9E78F
:100240004F2E512CF02D312C212C61E081E00E94A9
:100250005E0060E081E00E945E000F2EFBE08F2ECA
:10026000F1E09F2EF02DE40160E080E00E945E004E
:100270008EE190E00E945300F501808180648083CC
:10028000F501808184FFFCCFF201608170E0709302
:10029000090160930801072E000C880B990B0E943E
:1002A000CD0120E030E040E05DE30E9431020E9499
:1002B00095016993799361E080E00E945E00C61524
:1002C000D70591F6E12CF12C28C0C32DD22D0E9428
:1002D000B500BE01C7010E94C8002196F601008149
:1002E0001181C017D1079CF3083011055CF40E94FE
:1002F000B500B801C7010E94DB000F5F1F4F083037
:100300001105A9F7FFEFEF1AFF0A82E0880E911C92
:10031000E8E0EE16F10409F498CF6401F4010081DD
:100320001181101611068CF2DFCF0E949C01689497
:10033000B1110C942B0208950E94100288F09F576F
:1003400098F0B92F9927B751B0F0E1F0660F771FF9
:10035000881F991F1AF0BA95C9F714C0B13091F0EF
:100360000E942A02B1E008950C942A02672F782F88
:100370008827B85F39F0B93FCCF3869577956795B4
:10038000B395D9F73EF490958095709561957F4F20
:100390008F4F9F4F0895E89409C097FB3EF49095C6
:1003A0008095709561957F4F8F4F9F4F9923A9F04E
:1003B000F92F96E9BB279395F695879577956795DD
:1003C000B795F111F8CFFAF4BB0F11F460FF1BC021
:1003D0006F5F7F4F8F4F9F4F16C0882311F096E9B4
:1003E00011C0772321F09EE8872F762F05C0662362
:1003F00071F096E8862F70E060E02AF09A95660F1B
:10040000771F881FDAF7880F9695879597F90895D3
:1004100057FD9058440F551F59F05F3F71F04795B5
:10042000880F97FB991F61F09F3F79F0879508959A
:10043000121613061406551FF2CF4695F1DF08C0B9
:10044000161617061806991FF1CF869571056105D6
:1004500008940895E894BB2766277727CB0197F97E
:1004600008950E9444020C94B5020E94A70238F03D
:100470000E94AE0220F0952311F00C949E020C9481
:10048000A40211240C942B020E94080270F3959F81
:10049000C1F3950F50E0551F629FF001729FBB277B
:1004A000F00DB11D639FAA27F00DB11DAA1F649F17
:1004B0006627B00DA11D661F829F2227B00DA11DCA
:1004C000621F739FB00DA11D621F839FA00D611D50
:1004D000221F749F3327A00D611D231F849F600D71
:1004E000211D822F762F6A2F11249F5750409AF09A
:1004F000F1F088234AF0EE0FFF1FBB1F661F771F26
:10050000881F91505040A9F79E3F510580F00C94F0
:100510009E020C942B025F3FE4F3983ED4F3869541
:1005200077956795B795F795E7959F5FC1F7FE2B90
:10053000880F911D9695879597F9089597F99F676C
:1005400080E870E060E008959FEF80EC089500245B
:100550000A941616170618060906089500240A9428
:1005600012161306140605060895092E0394000CAE
:1005700011F4882352F0BB0F40F4BF2B11F460FF3D
:1005800004C06F5F7F4F8F4F9F4F0895F894FFCF48
:00000001FF
