S013000053746570706572546573742E737265638E
S11300000C9434000C9451000C9451000C94510045
S11300100C9451000C9451000C9451000C94510018
S11300200C9451000C9451000C9451000C94510008
S11300300C9451000C9451000C9451000C945100F8
S11300400C9451000C9451000C9451000C945100E8
S11300500C9451000C9451000C9451000C945100D8
S11300600C9451000C94510011241FBECFEFD8E022
S1130070DEBFCDBF11E0A0E0B1E0E6E4F6E002C0EF
S113008005900D92AC30B107D9F721E0ACE0B1E0B6
S113009001C01D92A331B207E1F70E943D010C9407
S11300A021030C940000662379F021E030E0A901DB
S11300B002C0440F551F8A95E2F7CA0190910C01C2
S11300C0892B80930C0102C010920C0180910C01C9
S11300D08BB90895009731F025E02A95F1F70000D7
S11300E00197D1F708958F929F92AF92BF92CF92CA
S11300F0DF92EF92FF920F931F93CF93DF938C01C4
S1130100C0910201D091030180910F0190911001DF
S1130110801791070CF49BC0081719070CF48EC0C4
S11301209FC07501C12CD12C8A2C9B2C7EC061E010
S1130130809101010E94530060E0809101010E94BE
S1130140530080910F01909110018A0D9B1D909393
S1130150100180930F01CE010E946A00EA14FB048F
S113016001F5BE01DD0F880B990B0E942802209136
S113017008013091090140910A0150910B010E943C
S11301807E010E94F0012091060130910701EB01EC
S1130190621773070CF4E901C217D307F1F4E901FC
S11301A031C0BE01DD0F880B990B0E9428022091FB
S11301B008013091090140910A0150910B010E94FC
S11301C0B4020E94F0012091060130910701EB0175
S11301D062177307BCF4E90115C080910F01909177
S11301E01001801B910B9C0122F422273327281B2A
S11301F0390BC216D30634F48FEFC81AD80AE82C88
S1130200F92C13C020910F0130911001201B310BE8
S1130210C901992324F488279927821B930B8C15F1
S11302209D051CF4F194E194F10880910F019091E3
S113023010018017910709F07ACF12C060E0809115
S113024000010E945300AA24AA94BA2C6ACF61E048
S1130250809100010E945300AA24A394B12C61CF81
S1130260DF91CF911F910F91FF90EF90DF90CF908E
S1130270BF90AF909F908F9008958CE28AB91BB87D
S113028082E084B9E0E8F0E08081826A8083E1E87A
S1130290F0E080818C61808387E893E1909387000C
S11302A08093860017B81092640087E880937A00E0
S11302B080E680937C00CAE7D0E009E710E00F2EC7
S11302C0F2E3FF2EF02D888180648883888184FF87
S11302D0FDCFF801808190E0909312018093110189
S11302E0F89E9001F99E300D112430930E01209355
S11302F00D0188E893E10E947300E5CF0E9492010A
S11303000C947A020E94730258F00E946C0240F02E
S113031029F45F3F29F00C94630251110C94AE024E
S11303200C9469020E948B0268F39923B1F355235C
S113033091F3951B550BBB27AA27621773078407F4
S113034038F09F5F5F4F220F331F441FAA1FA9F38A
S113035035D00E2E3AF0E0E832D091505040E69578
S1130360001CCAF72BD0FE2F29D0660F771F881FD9
S1130370BB1F261737074807AB07B0E809F0BB0BCC
S1130380802DBF01FF2793585F4F3AF09E3F5105E0
S113039078F00C9463020C94AE025F3FE4F3983E51
S11303A0D4F3869577956795B795F7959F5FC9F7C9
S11303B0880F911D9695879597F90895E1E0660F4A
S11303C0771F881FBB1F621773078407BA0720F0C3
S11303D0621B730B840BBA0BEE1F88F7E09508952C
S11303E00E94F7016894B1110C94AE0208950E9422
S11303F0930288F09F5798F0B92F9927B751B0F01E
S1130400E1F0660F771F881F991F1AF0BA95C9F794
S113041014C0B13091F00E94AD02B1E008950C9483
S1130420AD02672F782F8827B85F39F0B93FCCF336
S1130430869577956795B395D9F73EF49095809511
S1130440709561957F4F8F4F9F4F0895E89409C031
S113045097FB3EF490958095709561957F4F8F4FF3
S11304609F4F9923A9F0F92F96E9BB279395F69509
S1130470879577956795B795F111F8CFFAF4BB0F87
S113048011F460FF1BC06F5F7F4F8F4F9F4F16C0EB
S1130490882311F096E911C0772321F09EE8872F75
S11304A0762F05C0662371F096E8862F70E060E031
S11304B02AF09A95660F771F881FDAF7880F9695AA
S11304C0879597F9089597F99F6780E870E060E051
S11304D008959FEF80EC089500240A9416161706D9
S11304E018060906089500240A9412161306140621
S11304F005060895092E0394000C11F4882352F084
S1130500BB0F40F4BF2B11F460FF04C06F5F7F4F3B
S11305108F4F9F4F089557FD9058440F551F59F022
S11305205F3F71F04795880F97FB991F61F09F3FDC
S113053079F087950895121613061406551FF2CF05
S11305404695F1DF08C0161617061806991FF1CF55
S113055086957105610508940895E894BB2766277C
S11305607727CB0197F908950E94C7020C947A0269
S11305700E946C0238F00E94730220F0952311F05F
S11305800C9463020C94690211240C94AE020E9430
S11305908B0270F3959FC1F3950F50E0551F629F36
S11305A0F001729FBB27F00DB11D639FAA27F00DC8
S11305B0B11DAA1F649F6627B00DA11D661F829FEF
S11305C02227B00DA11D621F739FB00DA11D621FD4
S11305D0839FA00D611D221F749F3327A00D611DF1
S11305E0231F849F600D211D822F762F6A2F1124D3
S11305F09F5750409AF0F1F088234AF0EE0FFF1F06
S1130600BB1F661F771F881F91505040A9F79E3F5C
S1130610510580F00C9463020C94AE025F3FE4F346
S1130620983ED4F3869577956795B795F795E795B2
S11306309F5FC1F7FE2B880F911D9695879597F9BB
S10906400895F894FFCFB9
S10F0646030200E1F5053200C520803FEE
S9030000FC
