S013000053746570706572546573742E737265638E
S11300000C9434000C9451000C9451000C94510045
S11300100C9451000C9451000C9451000C94510018
S11300200C9451000C9451000C9451000C94510008
S11300300C9451000C9451000C9451000C945100F8
S11300400C9451000C9451000C9451000C945100E8
S11300500C9451000C9451000C9451000C945100D8
S11300600C9451000C94510011241FBECFEFD8E022
S1130070DEBFCDBF11E0A0E0B1E0E0E3FBE002C0F1
S113008005900D92A431B107D9F721E0A4E1B1E0C4
S113009001C01D92A931B207E1F70E9466020C94D7
S11300A096050C940000662379F021E030E0A90164
S11300B002C0440F551F8A95E2F7CA0190911401BA
S11300C0892B809314010FC021E030E0A90102C004
S11300D0440F551F8A95E2F7CA0180959091140147
S11300E0892380931401809114018BB908956130A0
S11300F071058105910559F460E0809101010E9428
S1130100530061E0809102010E945300089561153B
S113011071058105910559F460E0809102010E9406
S1130120530061E0809101010E9453000895623000
S113013071058105910551F460E0809102010E94EE
S1130140530060E0809101010E94530008956130E2
S113015071058105910559F460E0809103010E94C5
S1130160530061E0809104010E9453000895672BBD
S1130170682B692B51F460E0809104010E945300C4
S113018061E0809103010E94530008956115710597
S11301908105910561F0DC01CB01EFE9FFE03197C6
S11301A0F1F700C000000197A109B109B1F7089562
S11301B0611571058105910551F0DC01CB0125E044
S11301C02A95F1F700000197A109B109C1F7089533
S11301D02F923F924F925F926F927F928F929F9253
S11301E0AF92BF92CF92DF92EF92FF920F931F9341
S11301F0CF93DF93CDB7DEB72E970FB6F894DEBF5B
S11302000FBECDBF2B013C01C0900701D090080167
S1130210E0900901F0900A0161E070E080E090E074
S11302200E94A7008091150190911601A0911701D9
S1130230B091180184159505A605B70504F561E08C
S1130240809105010E945300812C912C54018394C8
S11302508D829E82AF82B88621E030E040E050E09B
S113026029833A834B835C8319861A861B861C86F2
S113027000E010E0382C292CAD86BE8600C148165B
S113028059066A067B060CF008C160E080910501FE
S11302900E94530088248A94982C5401D9CF61E099
S11302A0809106010E94530060E0809106010E9443
S11302B053008091150190911601A0911701B091FE
S11302C01801880D991DAA1DBB1D809315019093DB
S11302D01601A0931701B0931801C701B6010E943B
S11302E0D8004D815E816F817885481559056A056E
S11302F07B0569F5C701B6010E949D0420910F0199
S11303003091100140911101509112010E94F303A8
S11303100E946504362F272F40910B0150910C0148
S113032060910D0170910E01C32ED22EE82EF92E8C
S1130330C416D506E606F70614F46A017B01C41652
S1130340D506E606F70649F56A017B0155C0C701E3
S1130350B6010E949D0420910F013091100140913B
S11303601101509112010E9429050E946504362F43
S1130370272F40910B0150910C0160910D01709158
S11303800E01C32ED22EE82EF92EC416D506E6068B
S1130390F70694F56A017B012FC040911501509135
S11303A016016091170170911801441955096609E5
S11303B07709CA01992324F488279927841B950B6C
S11303C0092E000CAA0BBB0B29853A854B855C854D
S11303D0281739074A075B077CF42F5F3F4F4F4FBD
S11303E05F4F29873A874B875C873D822E823D8504
S11303F03F834E85488743C081E029813A814B8100
S11304005C81232B242B252B09F480E08823B9F16C
S113041040911501509116016091170170911801D6
S11304204419550966097709CA01992324F48827D0
S11304309927841B950B092E000CAA0BBB0B21E0FA
S113044049855A856B857C8584179507A607B70768
S11304500CF020E0222399F06D817E818F819885B4
S113046090958095709561957F4F8F4F9F4F6D83C9
S11304707E838F83988709831A831B821C828091D1
S1130480150190911601A0911701B09118018415DE
S11304909505A605B70509F002CF2E960FB6F89478
S11304A0DEBF0FBECDBFDF91CF911F910F91FF90A3
S11304B0EF90DF90CF90BF90AF909F908F907F9000
S11304C06F905F904F903F902F9008958EEF8AB970
S11304D01BB882E084B9E0E8F0E08081826A80831E
S11304E0E1E8F0E080818C61808387E893E1909378
S11304F087008093860017B81092640087E8809381
S11305007A0080E680937C0061E070E080E090E017
S11305100E94A7001899FECF60ED77E080E090E09C
S11305200E94C60061E070E080E090E00E947700E5
S113053062E072E080E090E00E94E80060E070E039
S1130540CB010E94A70061E0809100010E9453004A
S113055066E970E080E090E00E94C60060E080916F
S113056000010E94530061E070E080E090E00E948E
S1130570A70068EB73E080E090E00E94E80060E090
S113058070E0CB010E94A70061E0809100010E940D
S1130590530066E970E080E090E00E94C60060E0ED
S11305A0809100010E94530061E070E080E090E0DF
S11305B00E94A7006CE774E080E090E00E94E800ED
S11305C060E070E0CB010E94A70061E0809100012F
S11305D00E94530060E971E080E090E00E94C60050
S11305E060E0809100010E94530061E070E080E0CF
S11305F090E00E94A70062E370E080E090E00E9437
S1130600C60060E070E0CB010E94A70061E0809129
S113061000010E9453006EE571E080E090E00E94CA
S1130620C60060E0809100010E94530061E070E028
S113063080E090E00E94A70060E070E0CB010E949F
S1130640E80060E070E0CB010E94A70061E08091C7
S113065000010E94530068EC70E080E090E00E948A
S1130660C60060E0809100010E94530061E070E0E8
S113067080E090E00E94A7006EEE76E080E090E0DB
S11306800E94E80060E070E0CB010E94A70061E0F6
S1130690809100010E9453006CE271E080E090E0E0
S11306A00E94C60060E0809100010E94530061E056
S11306B070E080E090E00E94A7006FE674E080E0C4
S11306C090E00E94E80060E070E0CB010E94A70087
S11306D061E0809100010E9453006EE071E080E0CF
S11306E090E00E94C60060E0809100010E945300E7
S11306F061E070E080E090E00E94A7006EEE76E09A
S113070080E090E00E94E80060E070E0CB010E948D
S1130710A70061E0809100010E94530061EE70E047
S113072080E090E00E94C60060E0809100010E9499
S1130730530061E070E080E090E00E94A70062E373
S113074070E080E090E00E94C60060E070E0CB01C1
S11307500E94A70061E0809100010E94530061EEB5
S113076070E080E090E00E94C60060E080910001AB
S11307700E94530061E070E080E090E00E94A700D6
S113078062E370E080E090E00E94C60060E070E008
S1130790CB010E94A70061E0809100010E945300F8
S11307A064EF71E080E090E00E94C60060E0809118
S11307B000010E94530061E070E080E090E00E943C
S11307C0A70062E070E080E090E00E94770064EFB0
S11307D071E080E090E00E94C60060E070E0CB0130
S11307E00E94E80091CE0E9407040C94EF040E943A
S11307F0E80458F00E94E10440F029F45F3F29F036
S11308000C94D80451110C9423050C94DE040E941A
S1130810000568F39923B1F3552391F3951B550B08
S1130820BB27AA2762177307840738F09F5F5F4FBF
S1130830220F331F441FAA1FA9F335D00E2E3AF0FE
S1130840E0E832D091505040E695001CCAF72BD016
S1130850FE2F29D0660F771F881FBB1F2617370767
S11308604807AB07B0E809F0BB0B802DBF01FF2799
S113087093585F4F3AF09E3F510578F00C94D8049A
S11308800C9423055F3FE4F3983ED4F38695779563
S11308906795B795F7959F5FC9F7880F911D969552
S11308A0879597F90895E1E0660F771F881FBB1FAE
S11308B0621773078407BA0720F0621B730B840B5B
S11308C0BA0BEE1F88F7E09508950E946C046894B3
S11308D0B1110C94230508950E94080588F09F57D0
S11308E098F0B92F9927B751B0F0E1F0660F771F50
S11308F0881F991F1AF0BA95C9F714C0B13091F046
S11309000E942205B1E008950C942205672F782FE8
S11309108827B85F39F0B93FCCF38695779567950A
S1130920B395D9F73EF490958095709561957F4F76
S11309308F4F9F4F0895E89409C097FB3EF490951C
S11309408095709561957F4F8F4F9F4F9923A9F0A4
S1130950F92F96E9BB279395F69587957795679533
S1130960B795F111F8CFFAF4BB0F11F460FF1BC077
S11309706F5F7F4F8F4F9F4F16C0882311F096E90A
S113098011C0772321F09EE8872F762F05C06623B8
S113099071F096E8862F70E060E02AF09A95660F71
S11309A0771F881FDAF7880F9695879597F908952A
S11309B097F99F6780E870E060E008959FEF80EC0E
S11309C0089500240A9416161706180609060895B1
S11309D000240A9412161306140605060895092E17
S11309E00394000C11F4882352F0BB0F40F4BF2B86
S11309F011F460FF04C06F5F7F4F8F4F9F4F0895C6
S1130A0057FD9058440F551F59F05F3F71F04795BB
S1130A10880F97FB991F61F09F3F79F087950895A0
S1130A20121613061406551FF2CF4695F1DF08C0BF
S1130A30161617061806991FF1CF869571056105DC
S1130A4008940895E894BB2766277727CB0197F984
S1130A5008950E943C050C94EF040E94E10438F0D0
S1130A600E94E80420F0952311F00C94D8040C940F
S1130A70DE0411240C9423050E94000570F3959F55
S1130A80C1F3950F50E0551F629FF001729FBB2781
S1130A90F00DB11D639FAA27F00DB11DAA1F649F1D
S1130AA06627B00DA11D661F829F2227B00DA11DD0
S1130AB0621F739FB00DA11D621F839FA00D611D56
S1130AC0221F749F3327A00D611D231F849F600D77
S1130AD0211D822F762F6A2F11249F5750409AF0A0
S1130AE0F1F088234AF0EE0FFF1FBB1F661F771F2C
S1130AF0881F91505040A9F79E3F510580F00C94F7
S1130B00D8040C9423055F3FE4F3983ED4F3869510
S1130B1077956795B795F795E7959F5FC1F7FE2B96
S1130B20880F911D9695879597F90895F894FFCFAE
S1130B300105040706030288130000320000008F39
S1070B40C2953F0017
S9030000FC
