:100000000C9434000C9451000C9451000C94510049
:100010000C9451000C9451000C9451000C9451001C
:100020000C9451000C9451000C9451000C9451000C
:100030000C9451000C9451000C9451000C945100FC
:100040000C9451000C9451000C9451000C945100EC
:100050000C9451000C9451000C9451000C945100DC
:100060000C9451000C94510011241FBECFEFD8E026
:10007000DEBFCDBF11E0A0E0B1E0EAEEF1E002C0EA
:1000800005900D92A630B107D9F721E0A6E0B1E0C6
:1000900001C01D92AD30B207E1F70E94AA000C9496
:1000A000F3000C940000662379F021E030E0A90110
:1000B00002C0440F551F8A95E2F7CA0190910601CC
:1000C000892B8093060102C01092060180910601DF
:1000D0008BB90895CF93DF932091090130910A01E4
:1000E0002817390744F461E0809100010E94530011
:1000F000C1E0D0E018C08217930744F460E080911B
:1001000000010E945300CFEFDFEF0DC0C0E0D0E050
:100110008091090190910A018C0F9D1F90930A0113
:10012000809309010BC061E0809101010E9453009E
:1001300060E0809101010E945300EACFDF91CF91EE
:100140000895009731F025E02A95F1F70000019716
:10015000D1F708958CE28AB91BB882E084B9E0E84F
:10016000F0E08081826A8083E1E8F0E080818C6148
:10017000808387E893E1909387008093860017B887
:100180001092640087E880937A0080E680937C0078
:10019000CAE7D0E00F2EF9E7EF2EF12CF02D0F2E4D
:1001A000F2E3DF2EF02D02E011E088818064888385
:1001B000888184FFFDCFF701208130E030930C016E
:1001C00020930B01D29EC001D39E900D11249093D9
:1001D0000801809307010E946A00F80180819181E3
:0A01E0000E94A100E2CFF894FFCFC7
:0601EA0003020500000005
:00000001FF
