:100000000C9434000C9451000C9451000C94510049
:100010000C9451000C9451000C9451000C9451001C
:100020000C9451000C9451000C9451000C9451000C
:100030000C9451000C9451000C9451000C945100FC
:100040000C9451000C9451000C9451000C945100EC
:100050000C9451000C9451000C9451000C945100DC
:100060000C9451000C94510011241FBECFEFD8E026
:10007000DEBFCDBF11E0A0E0B1E0ECE9F6E002C0E8
:1000800005900D92AE30B107D9F721E0AEE0B1E0B6
:1000900001C01D92A531B207E1F70E9464010C94E2
:1000A0004C030C940000662379F021E030E0A901B4
:1000B00002C0440F551F8A95E2F7CA0190910E01C4
:1000C000892B80930E010FC021E030E0A90102C00E
:1000D000440F551F8A95E2F7CA01809590910E0151
:1000E000892380930E0180910E018BB908950097AA
:1000F00059F460E0809100010E94530061E080911A
:1001000001010E9453000895019751F460E080912D
:1001100001010E94530061E0809100010E945300A0
:100120000895009731F025E02A95F1F70000019736
:10013000D1F708958F929F92AF92BF92CF92DF92A4
:10014000EF92FF920F931F93CF93DF938C01C09197
:100150000401D09105018091110190911201801745
:1001600091070CF49BC0081719070CF48EC09FC0B0
:100170007501C12CD12C8A2C9B2C7EC061E0809112
:1001800003010E94530060E0809103010E9453002C
:1001900080911101909112018A0D9B1D9093120183
:1001A00080931101CE010E949100EA14FB0401F535
:1001B000BE01DD0F880B990B0E94530220910A01AA
:1001C00030910B0140910C0150910D010E94A90149
:1001D0000E941B022091080130910901EB01621776
:1001E00073070CF4E901C217D307F1F4E90131C038
:1001F000BE01DD0F880B990B0E94530220910A016A
:1002000030910B0140910C0150910D010E94DF02D1
:100210000E941B022091080130910901EB01621735
:100220007307BCF4E90115C080911101909112018E
:10023000801B910B9C0122F422273327281B390BAA
:10024000C216D30634F48FEFC81AD80AE82CF92C5A
:1002500013C02091110130911201201B310BC901F3
:10026000992324F488279927821B930B8C159D05CD
:100270001CF4F194E194F108809111019091120124
:100280008017910709F07ACF12C060E080910201D7
:100290000E945300AA24AA94BA2C6ACF61E08091EC
:1002A00002010E945300AA24A394B12C61CFDF91D4
:1002B000CF911F910F91FF90EF90DF90CF90BF9063
:1002C000AF909F908F9008958CEC8AB91BB882E014
:1002D00084B9E0E8F0E08081826A8083E1E8F0E0C0
:1002E00080818C61808387E893E19093870080937D
:1002F000860017B81092640087E880937A0080E641
:1003000080937C0080E090E00E947700CAE7D0E014
:1003100009E710E00F2EF2E3FF2EF02D88818064B4
:100320008883888184FFFDCFF801808190E09093DD
:10033000140180931301F89E9001F99E300D112451
:100340003093100120930F0188E893E10E949A00F6
:10035000E5CF0E94BD010C94A5020E949E0258F0B8
:100360000E94970240F029F45F3F29F00C948E021E
:1003700051110C94D9020C9494020E94B60268F3B5
:100380009923B1F3552391F3951B550BBB27AA274E
:1003900062177307840738F09F5F5F4F220F331F88
:1003A000441FAA1FA9F335D00E2E3AF0E0E832D050
:1003B00091505040E695001CCAF72BD0FE2F29D053
:1003C000660F771F881FBB1F261737074807AB0725
:1003D000B0E809F0BB0B802DBF01FF2793585F4F9A
:1003E0003AF09E3F510578F00C948E020C94D9029D
:1003F0005F3FE4F3983ED4F3869577956795B7957C
:10040000F7959F5FC9F7880F911D9695879597F986
:100410000895E1E0660F771F881FBB1F62177307FF
:100420008407BA0720F0621B730B840BBA0BEE1F14
:1004300088F7E09508950E9422026894B1110C9407
:10044000D90208950E94BE0288F09F5798F0B92FF4
:100450009927B751B0F0E1F0660F771F881F991FF9
:100460001AF0BA95C9F714C0B13091F00E94D802C1
:10047000B1E008950C94D802672F782F8827B85FD1
:1004800039F0B93FCCF3869577956795B395D9F751
:100490003EF490958095709561957F4F8F4F9F4F5B
:1004A0000895E89409C097FB3EF490958095709567
:1004B00061957F4F8F4F9F4F9923A9F0F92F96E9B0
:1004C000BB279395F695879577956795B795F11125
:1004D000F8CFFAF4BB0F11F460FF1BC06F5F7F4FC2
:1004E0008F4F9F4F16C0882311F096E911C07723D4
:1004F00021F09EE8872F762F05C0662371F096E8DD
:10050000862F70E060E02AF09A95660F771F881FAB
:10051000DAF7880F9695879597F9089597F99F6769
:1005200080E870E060E008959FEF80EC089500247B
:100530000A941616170618060906089500240A9448
:1005400012161306140605060895092E0394000CCE
:1005500011F4882352F0BB0F40F4BF2B11F460FF5D
:1005600004C06F5F7F4F8F4F9F4F089557FD905886
:10057000440F551F59F05F3F71F04795880F97FB67
:10058000991F61F09F3F79F0879508951216130621
:100590001406551FF2CF4695F1DF08C01616170650
:1005A0001806991FF1CF8695710561050894089585
:1005B000E894BB2766277727CB0197F908950E9417
:1005C000F2020C94A5020E94970238F00E949E024B
:1005D00020F0952311F00C948E020C9494021124B7
:1005E0000C94D9020E94B60270F3959FC1F3950F47
:1005F00050E0551F629FF001729FBB27F00DB11DA7
:10060000639FAA27F00DB11DAA1F649F6627B00D36
:10061000A11D661F829F2227B00DA11D621F739F1F
:10062000B00DA11D621F839FA00D611D221F749F2D
:100630003327A00D611D231F849F600D211D822F74
:10064000762F6A2F11249F5750409AF0F1F088239B
:100650004AF0EE0FFF1FBB1F661F771F881F9150C8
:100660005040A9F79E3F510580F00C948E020C94E7
:10067000D9025F3FE4F3983ED4F38695779567956A
:10068000B795F795E7959F5FC1F7FE2B880F911DF2
:0C0690009695879597F90895F894FFCF90
:0E069C000706030200E1F5053200C520803F8D
:00000001FF
