:100000000C9434000C9451000C9451000C94510049
:100010000C9451000C9451000C9451000C9451001C
:100020000C9451000C9451000C9451000C9451000C
:100030000C9451000C9451000C9451000C945100FC
:100040000C9451000C9451000C9451000C945100EC
:100050000C9451000C9451000C9451000C945100DC
:100060000C9451000C94510011241FBECFEFD8E026
:10007000DEBFCDBF11E0A0E0B1E0E4E7F1E002C0F7
:1000800005900D92A030B107D9F721E0A0E0B1E0D2
:1000900001C01D92A430B207E1F70E945E000C94EB
:1000A000B8000C940000009741F0EFE9FFE03197B1
:1000B000F1F700C000000197C1F708958CE28AB9FA
:1000C0001BB882E084B9E0E8F0E08081826A808336
:1000D000E1E8F0E080818C61808387E893E1909390
:1000E00087008093860017B81092640087E8809399
:1000F0007A0080E680937C00CAE7D0E00F2EF9E713
:10010000AF2EB12CF02D0F2EF2E39F2EF02D08E82C
:1001100010E00F2EFDE2CF2ED12CF02D0F2EF1E9A5
:10012000EF2EF12CF02D888180648883888184FFF4
:10013000FDCFF501808190E090930301809302014F
:10014000989E9001999E300D1124309301012093C7
:100150000001F801D182C08288EE93E00E94530032
:10016000F801F182E08288EE93E00E945300DBCF39
:04017000F894FFCF31
:00000001FF
