S013000053746570706572546573742E737265638E
S11300000C9434000C9451000C9451000C94510045
S11300100C9451000C9451000C9451000C94510018
S11300200C9451000C9451000C9451000C94510008
S11300300C9451000C9451000C9451000C945100F8
S11300400C9451000C9451000C9451000C945100E8
S11300500C9451000C9451000C9451000C945100D8
S11300600C9451000C94510011241FBECFEFD8E022
S1130070DEBFCDBF11E0A0E0B1E0E8ECF7E002C0E4
S113008005900D92AE30B107D9F721E0AEE0B1E0B2
S113009001C01D92A131B207E1F70E9470010C94D6
S11300A0E2030C940000662379F021E030E0A9011A
S11300B002C0440F551F8A95E2F7CA0190910E01C0
S11300C0892B80930E010FC021E030E0A90102C00A
S11300D0440F551F8A95E2F7CA01809590910E014D
S11300E0892380930E0180910E018BB9089581308C
S11300F0910559F460E0809100010E94530061E091
S1130100809101010E9453000895892B51F460E00D
S1130110809101010E94530061E0809100010E94DE
S113012053000895009741F0EFE9FFE03197F1F7AC
S113013000C000000197C1F70895009731F025E051
S11301402A95F1F700000197D1F708958F929F92B5
S1130150AF92BF92CF92DF92EF92FF920F931F93D1
S1130160CF93DF938C01C0910401D091050180915C
S11301700F0190911001801791070CF49BC0081790
S113018019070CF48EC09FC07501C12CD12C8A2C88
S11301909B2C7EC061E0809103010E94530060E0CB
S11301A0809103010E94530080910F0190911001EE
S11301B08A0D9B1D9093100180930F01CE010E9424
S11301C09D00EA14FB0401F5BE01DD0F880B990BB9
S11301D00E94E90220910A0130910B0140910C0127
S11301E050910D010E943F020E94B102209108012A
S11301F030910901EB01621773070CF4E901C2178E
S1130200D307F1F4E90131C0BE01DD0F880B990B6E
S11302100E94E90220910A0130910B0140910C01E6
S113022050910D010E9475030E94B10220910801B2
S113023030910901EB0162177307BCF4E90115C0A1
S113024080910F0190911001801B910B9C0122F46D
S113025022273327281B390BC216D30634F48FEF19
S1130260C81AD80AE82CF92C13C020910F01309138
S11302701001201B310BC901992324F488279927E5
S1130280821B930B8C159D051CF4F194E194F108E9
S113029080910F01909110018017910709F07ACF96
S11302A012C060E0809102010E945300AA24AA9423
S11302B0BA2C6ACF61E0809102010E945300AA2403
S11302C0A394B12C61CFDF91CF911F910F91FF9037
S11302D0EF90DF90CF90BF90AF909F908F90089554
S11302E08CEC8AB91BB882E084B9E0E8F0E0808144
S11302F0826A8083E1E8F0E080818C61808387E812
S113030093E1909387008093860017B8109264005D
S113031087E880937A0080E680937C0081E090E017
S11303200E9477008EE49BE10E94A60080E090E0AA
S11303300E9477008AEF90E00E94920081E090E0B2
S11303400E9477008DE09DE10E94A60080E090E08D
S11303500E9477008AEF90E00E94920081E090E092
S11303600E9477008BEF9DE10E94A60080E090E060
S11303700E94770084EF91E00E94920081E090E077
S11303800E94770082E390E00E9492008BEF9DE14F
S11303900E94A60080E090E00E94770084EF91E044
S11303A00E94920081E090E00E94770080E192E256
S11303B00E94A60080E090E00E94770084EF91E024
S11303C00E94920081E090E00E9477008DE790E225
S11303D00E94A60080E090E00E94770084EF91E004
S11303E00E94920081E090E00E9477008BEF9DE1F3
S11303F00E94A60080E090E00E94770084EF91E0E4
S11304000E94920081E090E00E9477008DE790E2E4
S11304100E94A60080E090E00E9477008AEF90E0BE
S11304200E94920081E090E00E9477008DE790E2C4
S11304300E94A60080E090E00E9477008AEF90E09E
S11304400E94920081E090E00E94770082E390E0B5
S11304500E9492008DE790E20E94A60080E090E066
S11304600E94770084EF91E00E94920081E090E086
S11304700E94770088EB9BE00E94920053CF0E9479
S113048053020C943B030E94340358F00E942D0342
S113049040F029F45F3F29F00C94240351110C948B
S11304A06F030C942A030E944C0368F39923B1F35D
S11304B0552391F3951B550BBB27AA276217730786
S11304C0840738F09F5F5F4F220F331F441FAA1F1A
S11304D0A9F335D00E2E3AF0E0E832D091505040D6
S11304E0E695001CCAF72BD0FE2F29D0660F771F84
S11304F0881FBB1F261737074807AB07B0E809F06A
S1130500BB0B802DBF01FF2793585F4F3AF09E3FEE
S1130510510578F00C9424030C946F035F3FE4F3CB
S1130520983ED4F3869577956795B795F7959F5F31
S1130530C9F7880F911D9695879597F90895E1E07D
S1130540660F771F881FBB1F621773078407BA07DC
S113055020F0621B730B840BBA0BEE1F88F7E09537
S113056008950E94B8026894B1110C946F03089521
S11305700E94540388F09F5798F0B92F9927B751D8
S1130580B0F0E1F0660F771F881F991F1AF0BA9533
S1130590C9F714C0B13091F00E946E03B1E0089520
S11305A00C946E03672F782F8827B85F39F0B93F12
S11305B0CCF3869577956795B395D9F73EF49095E6
S11305C08095709561957F4F8F4F9F4F0895E89464
S11305D009C097FB3EF490958095709561957F4F87
S11305E08F4F9F4F9923A9F0F92F96E9BB27939535
S11305F0F695879577956795B795F111F8CFFAF445
S1130600BB0F11F460FF1BC06F5F7F4F8F4F9F4F75
S113061016C0882311F096E911C0772321F09EE8D3
S1130620872F762F05C0662371F096E8862F70E039
S113063060E02AF09A95660F771F881FDAF7880F13
S11306409695879597F9089597F99F6780E870E0E4
S113065060E008959FEF80EC089500240A94161634
S1130660170618060906089500240A94121613069C
S1130670140605060895092E0394000C11F488232A
S113068052F0BB0F40F4BF2B11F460FF04C06F5F46
S11306907F4F8F4F9F4F089557FD9058440F551F1C
S11306A059F05F3F71F04795880F97FB991F61F0F0
S11306B09F3F79F087950895121613061406551F67
S11306C0F2CF4695F1DF08C0161617061806991FD3
S11306D0F1CF86957105610508940895E894BB27C8
S11306E066277727CB0197F908950E9488030C9415
S11306F03B030E942D0338F00E94340320F095231D
S113070011F00C9424030C942A0311240C946F0309
S11307100E944C0370F3959FC1F3950F50E0551F51
S1130720629FF001729FBB27F00DB11D639FAA2742
S1130730F00DB11DAA1F649F6627B00DA11D661F91
S1130740829F2227B00DA11D621F739FB00DA11DB2
S1130750621F839FA00D611D221F749F3327A00D6C
S1130760611D231F849F600D211D822F762F6A2F08
S113077011249F5750409AF0F1F088234AF0EE0F6D
S1130780FF1FBB1F661F771F881F91505040A9F79A
S11307909E3F510580F00C9424030C946F035F3F3B
S11307A0E4F3983ED4F3869577956795B795F795D6
S11307B0E7959F5FC1F7FE2B880F911D969587954E
S10B07C097F90895F894FFCFA6
S11107C80706030200E1F5054600C520803F48
S9030000FC
