S0130000446973706C6179546573742E737265639B
S11300000C9434000C9451000C9451000C94510045
S11300100C9451000C9451000C9451000C94510018
S11300200C9451000C9451000C9451000C94510008
S11300300C9451000C9451000C9451000C945100F8
S11300400C9451000C9451000C9451000C945100E8
S11300500C9451000C9451000C9451000C945100D8
S11300600C9451000C94510011241FBECFEFD8E022
S1130070DEBFCDBF11E0A0E0B1E0E8E2F2E002C0F3
S113008005900D92A034B107D9F721E0A0E4B1E0C6
S113009001C01D92A834B207E1F70E94CA000C9473
S11300A012010C9400005E9898E05F98882314F481
S11300B05D9A01C05D98880F5F9A9150B1F70895D9
S11300C0CF93C62F5E980E9453008C2F0E9453003A
S11300D05E9ACF910895579A569A559A83ED90E374
S11300E00197F1F700C0000060E089E00E94600021
S11300F063E08AE00E94600067E08BE00E94600099
S113010061E08CE00E94600060E08FE00E9460008B
S113011008959FEF980F983010F40E94600008959E
S11301200F931F93CF9300E411E0C1E0F8016191B4
S11301308F018C2F0E948900CF5FC930B9F7CF910E
S11301401F910F9108956770E62FF0E0E05CFE4F79
S11301508095282F277081E090E002C0880F991FB6
S11301602A95E2F79081892B808308956770E62FA2
S1130170F0E0E05CFE4F8095282F277081E090E04E
S113018002C0880F991F2A95E2F7809590818923F0
S113019080830895CF93DF93CDB7DEB7C054D109E0
S11301A00FB6F894DEBF0FBECDBF0E946B0080E493
S11301B0E0E0F1E0DE01119601900D928A95E1F7FD
S11301C04E0181E4880E911C712CE72CFE013196BE
S11301D05F0125C0F60101916F011E2D0E94900060
S11301E000FF05C06F2D812F0E94A30004C06F2D56
S11301F0812F0E94B600069587E893E10197F1F7F5
S113020000C000001F5F183049F7F39498E0F9121A
S1130210E1CFE8E0AE0EB11CA814B904B9F265014F
S10B0220F72CD8CFF894FFCFAE
S1130228FFFFFFFFFFFFFFFFAA55AA55AA55AA55CE
S113023855AA55AA55AA55AACCCC3333CCCC3333BA
S11302483333CCCC3333CCCC0103070F1F3F7FFFB0
S1130258FF7F3F1F0F07030100000000000000009C
S9030000FC
